{
  "_format": "hh-sol-artifact-1",
  "contractName": "TicketTransfer",
  "sourceName": "contracts/ticketTransfer.sol",
  "abi": [
    {
      "inputs": [
        {
          "internalType": "contract ticket",
          "name": "_ticketContract",
          "type": "address"
        }
      ],
      "stateMutability": "nonpayable",
      "type": "constructor"
    },
    {
      "inputs": [],
      "name": "ticketContract",
      "outputs": [
        {
          "internalType": "contract ticket",
          "name": "",
          "type": "address"
        }
      ],
      "stateMutability": "view",
      "type": "function"
    },
    {
      "inputs": [
        {
          "internalType": "uint256",
          "name": "_ticketId",
          "type": "uint256"
        },
        {
          "internalType": "address",
          "name": "_to",
          "type": "address"
        }
      ],
      "name": "transferTicket",
      "outputs": [],
      "stateMutability": "nonpayable",
      "type": "function"
    }
  ],
  "bytecode": "0x608060405234801561001057600080fd5b50604051610423380380610423833981810160405281019061003291906100ed565b806000806101000a81548173ffffffffffffffffffffffffffffffffffffffff021916908373ffffffffffffffffffffffffffffffffffffffff1602179055505061011a565b600080fd5b600073ffffffffffffffffffffffffffffffffffffffff82169050919050565b60006100a88261007d565b9050919050565b60006100ba8261009d565b9050919050565b6100ca816100af565b81146100d557600080fd5b50565b6000815190506100e7816100c1565b92915050565b60006020828403121561010357610102610078565b5b6000610111848285016100d8565b91505092915050565b6102fa806101296000396000f3fe608060405234801561001057600080fd5b50600436106100365760003560e01c806358a86e1d1461003b578063679ebf1a14610059575b600080fd5b610043610075565b60405161005091906101a9565b60405180910390f35b610073600480360381019061006e919061023d565b610099565b005b60008054906101000a900473ffffffffffffffffffffffffffffffffffffffff1681565b60008054906101000a900473ffffffffffffffffffffffffffffffffffffffff1673ffffffffffffffffffffffffffffffffffffffff1663679ebf1a83836040518363ffffffff1660e01b81526004016100f492919061029b565b600060405180830381600087803b15801561010e57600080fd5b505af1158015610122573d6000803e3d6000fd5b505050505050565b600073ffffffffffffffffffffffffffffffffffffffff82169050919050565b6000819050919050565b600061016f61016a6101658461012a565b61014a565b61012a565b9050919050565b600061018182610154565b9050919050565b600061019382610176565b9050919050565b6101a381610188565b82525050565b60006020820190506101be600083018461019a565b92915050565b600080fd5b6000819050919050565b6101dc816101c9565b81146101e757600080fd5b50565b6000813590506101f9816101d3565b92915050565b600061020a8261012a565b9050919050565b61021a816101ff565b811461022557600080fd5b50565b60008135905061023781610211565b92915050565b60008060408385031215610254576102536101c4565b5b6000610262858286016101ea565b925050602061027385828601610228565b9150509250929050565b610286816101c9565b82525050565b610295816101ff565b82525050565b60006040820190506102b0600083018561027d565b6102bd602083018461028c565b939250505056fea264697066735822122047a519d2e3d500b4af0575eab576e73bf4f9ccf9ec7a4707a57e5f4da20ac59564736f6c63430008180033",
  "linkReferences": {},
  "deployedLinkReferences": {}
}