{
  "_format": "hh-sol-artifact-1",
  "contractName": "ticket",
  "sourceName": "contracts/ticket.sol",
  "abi": [
    {
      "inputs": [],
      "stateMutability": "nonpayable",
      "type": "constructor"
    },
    {
      "inputs": [
        {
          "internalType": "string",
          "name": "_passengerName",
          "type": "string"
        },
        {
          "internalType": "string",
          "name": "_departure",
          "type": "string"
        },
        {
          "internalType": "string",
          "name": "_destination",
          "type": "string"
        }
      ],
      "name": "buyTicket",
      "outputs": [],
      "stateMutability": "payable",
      "type": "function"
    },
    {
      "inputs": [],
      "name": "getMemos",
      "outputs": [
        {
          "components": [
            {
              "internalType": "uint256",
              "name": "ticketId",
              "type": "uint256"
            },
            {
              "internalType": "string",
              "name": "passengerName",
              "type": "string"
            },
            {
              "internalType": "string",
              "name": "departure",
              "type": "string"
            },
            {
              "internalType": "string",
              "name": "destination",
              "type": "string"
            },
            {
              "internalType": "uint256",
              "name": "timestamp",
              "type": "uint256"
            },
            {
              "internalType": "address",
              "name": "from",
              "type": "address"
            }
          ],
          "internalType": "struct ticket.Memo[]",
          "name": "",
          "type": "tuple[]"
        }
      ],
      "stateMutability": "view",
      "type": "function"
    },
    {
      "inputs": [],
      "name": "getValidDepartures",
      "outputs": [
        {
          "internalType": "string[]",
          "name": "",
          "type": "string[]"
        }
      ],
      "stateMutability": "pure",
      "type": "function"
    },
    {
      "inputs": [],
      "name": "getValidDestinations",
      "outputs": [
        {
          "internalType": "string[]",
          "name": "",
          "type": "string[]"
        }
      ],
      "stateMutability": "pure",
      "type": "function"
    },
    {
      "inputs": [
        {
          "internalType": "uint256",
          "name": "",
          "type": "uint256"
        }
      ],
      "name": "memos",
      "outputs": [
        {
          "internalType": "uint256",
          "name": "ticketId",
          "type": "uint256"
        },
        {
          "internalType": "string",
          "name": "passengerName",
          "type": "string"
        },
        {
          "internalType": "string",
          "name": "departure",
          "type": "string"
        },
        {
          "internalType": "string",
          "name": "destination",
          "type": "string"
        },
        {
          "internalType": "uint256",
          "name": "timestamp",
          "type": "uint256"
        },
        {
          "internalType": "address",
          "name": "from",
          "type": "address"
        }
      ],
      "stateMutability": "view",
      "type": "function"
    },
    {
      "inputs": [
        {
          "internalType": "uint256",
          "name": "_ticketId",
          "type": "uint256"
        },
        {
          "internalType": "address",
          "name": "_to",
          "type": "address"
        }
      ],
      "name": "transferTicket",
      "outputs": [],
      "stateMutability": "nonpayable",
      "type": "function"
    }
  ],
  "bytecode": "0x608060405234801561001057600080fd5b5033600160006101000a81548173ffffffffffffffffffffffffffffffffffffffff021916908373ffffffffffffffffffffffffffffffffffffffff160217905550611a53806100616000396000f3fe6080604052600436106100555760003560e01c806366b5d1b71461005a578063679ebf1a14610085578063726021be146100ae578063865c5172146100ca5780638b962315146100f5578063e8dfdf0414610120575b600080fd5b34801561006657600080fd5b5061006f610162565b60405161007c9190610eb2565b60405180910390f35b34801561009157600080fd5b506100ac60048036038101906100a79190610f7c565b6102bd565b005b6100c860048036038101906100c391906110f1565b61041f565b005b3480156100d657600080fd5b506100df6106c7565b6040516100ec919061130f565b60405180910390f35b34801561010157600080fd5b5061010a610946565b6040516101179190610eb2565b60405180910390f35b34801561012c57600080fd5b5061014760048036038101906101429190611331565b610aa1565b604051610159969594939291906113c6565b60405180910390f35b60606000600367ffffffffffffffff81111561018157610180610fc6565b5b6040519080825280602002602001820160405280156101b457816020015b606081526020019060019003908161019f5790505b5090506040518060400160405280600881526020017f4e657720596f726b000000000000000000000000000000000000000000000000815250816000815181106102015761020061143c565b5b60200260200101819052506040518060400160405280600681526020017f4c6f6e646f6e0000000000000000000000000000000000000000000000000000815250816001815181106102565761025561143c565b5b60200260200101819052506040518060400160405280600581526020017f5061726973000000000000000000000000000000000000000000000000000000815250816002815181106102ab576102aa61143c565b5b60200260200101819052508091505090565b6000805490508210610304576040517f08c379a00000000000000000000000000000000000000000000000000000000081526004016102fb906114b7565b60405180910390fd5b3373ffffffffffffffffffffffffffffffffffffffff166000838154811061032f5761032e61143c565b5b906000526020600020906006020160050160009054906101000a900473ffffffffffffffffffffffffffffffffffffffff1673ffffffffffffffffffffffffffffffffffffffff16146103b7576040517f08c379a00000000000000000000000000000000000000000000000000000000081526004016103ae90611549565b60405180910390fd5b80600083815481106103cc576103cb61143c565b5b906000526020600020906006020160050160006101000a81548173ffffffffffffffffffffffffffffffffffffffff021916908373ffffffffffffffffffffffffffffffffffffffff1602179055505050565b60003411610462576040517f08c379a0000000000000000000000000000000000000000000000000000000008152600401610459906115b5565b60405180910390fd5b61046b82610ca5565b6104aa576040517f08c379a00000000000000000000000000000000000000000000000000000000081526004016104a190611621565b60405180910390fd5b6104b381610cc2565b6104f2576040517f08c379a00000000000000000000000000000000000000000000000000000000081526004016104e99061168d565b60405180910390fd5b8080519060200120828051906020012003610542576040517f08c379a00000000000000000000000000000000000000000000000000000000081526004016105399061171f565b60405180910390fd5b600160009054906101000a900473ffffffffffffffffffffffffffffffffffffffff1673ffffffffffffffffffffffffffffffffffffffff166108fc349081150290604051600060405180830381858888f193505050501580156105aa573d6000803e3d6000fd5b5060008080549050905060006040518060c001604052808381526020018681526020018581526020018481526020014281526020013373ffffffffffffffffffffffffffffffffffffffff168152509080600181540180825580915050600190039060005260206000209060060201600090919091909150600082015181600001556020820151816001019081610641919061194b565b506040820151816002019081610657919061194b565b50606082015181600301908161066d919061194b565b506080820151816004015560a08201518160050160006101000a81548173ffffffffffffffffffffffffffffffffffffffff021916908373ffffffffffffffffffffffffffffffffffffffff160217905550505050505050565b60606000805480602002602001604051908101604052809291908181526020016000905b8282101561093d57838290600052602060002090600602016040518060c0016040529081600082015481526020016001820180546107289061176e565b80601f01602080910402602001604051908101604052809291908181526020018280546107549061176e565b80156107a15780601f10610776576101008083540402835291602001916107a1565b820191906000526020600020905b81548152906001019060200180831161078457829003601f168201915b505050505081526020016002820180546107ba9061176e565b80601f01602080910402602001604051908101604052809291908181526020018280546107e69061176e565b80156108335780601f1061080857610100808354040283529160200191610833565b820191906000526020600020905b81548152906001019060200180831161081657829003601f168201915b5050505050815260200160038201805461084c9061176e565b80601f01602080910402602001604051908101604052809291908181526020018280546108789061176e565b80156108c55780601f1061089a576101008083540402835291602001916108c5565b820191906000526020600020905b8154815290600101906020018083116108a857829003601f168201915b50505050508152602001600482015481526020016005820160009054906101000a900473ffffffffffffffffffffffffffffffffffffffff1673ffffffffffffffffffffffffffffffffffffffff1673ffffffffffffffffffffffffffffffffffffffff1681525050815260200190600101906106eb565b50505050905090565b60606000600367ffffffffffffffff81111561096557610964610fc6565b5b60405190808252806020026020018201604052801561099857816020015b60608152602001906001900390816109835790505b5090506040518060400160405280600881526020017f4e657720596f726b000000000000000000000000000000000000000000000000815250816000815181106109e5576109e461143c565b5b60200260200101819052506040518060400160405280600681526020017f4c6f6e646f6e000000000000000000000000000000000000000000000000000081525081600181518110610a3a57610a3961143c565b5b60200260200101819052506040518060400160405280600581526020017f506172697300000000000000000000000000000000000000000000000000000081525081600281518110610a8f57610a8e61143c565b5b60200260200101819052508091505090565b60008181548110610ab157600080fd5b9060005260206000209060060201600091509050806000015490806001018054610ada9061176e565b80601f0160208091040260200160405190810160405280929190818152602001828054610b069061176e565b8015610b535780601f10610b2857610100808354040283529160200191610b53565b820191906000526020600020905b815481529060010190602001808311610b3657829003601f168201915b505050505090806002018054610b689061176e565b80601f0160208091040260200160405190810160405280929190818152602001828054610b949061176e565b8015610be15780601f10610bb657610100808354040283529160200191610be1565b820191906000526020600020905b815481529060010190602001808311610bc457829003601f168201915b505050505090806003018054610bf69061176e565b80601f0160208091040260200160405190810160405280929190818152602001828054610c229061176e565b8015610c6f5780601f10610c4457610100808354040283529160200191610c6f565b820191906000526020600020905b815481529060010190602001808311610c5257829003601f168201915b5050505050908060040154908060050160009054906101000a900473ffffffffffffffffffffffffffffffffffffffff16905086565b600080610cb983610cb4610162565b610cdf565b12159050919050565b600080610cd683610cd1610946565b610cdf565b12159050919050565b600080600090505b8251811015610d35578380519060200120838281518110610d0b57610d0a61143c565b5b60200260200101518051906020012003610d285780915050610d5a565b8080600101915050610ce7565b507fffffffffffffffffffffffffffffffffffffffffffffffffffffffffffffffff90505b92915050565b600081519050919050565b600082825260208201905092915050565b6000819050602082019050919050565b600081519050919050565b600082825260208201905092915050565b60005b83811015610dc6578082015181840152602081019050610dab565b60008484015250505050565b6000601f19601f8301169050919050565b6000610dee82610d8c565b610df88185610d97565b9350610e08818560208601610da8565b610e1181610dd2565b840191505092915050565b6000610e288383610de3565b905092915050565b6000602082019050919050565b6000610e4882610d60565b610e528185610d6b565b935083602082028501610e6485610d7c565b8060005b85811015610ea05784840389528151610e818582610e1c565b9450610e8c83610e30565b925060208a01995050600181019050610e68565b50829750879550505050505092915050565b60006020820190508181036000830152610ecc8184610e3d565b905092915050565b6000604051905090565b600080fd5b600080fd5b6000819050919050565b610efb81610ee8565b8114610f0657600080fd5b50565b600081359050610f1881610ef2565b92915050565b600073ffffffffffffffffffffffffffffffffffffffff82169050919050565b6000610f4982610f1e565b9050919050565b610f5981610f3e565b8114610f6457600080fd5b50565b600081359050610f7681610f50565b92915050565b60008060408385031215610f9357610f92610ede565b5b6000610fa185828601610f09565b9250506020610fb285828601610f67565b9150509250929050565b600080fd5b600080fd5b7f4e487b7100000000000000000000000000000000000000000000000000000000600052604160045260246000fd5b610ffe82610dd2565b810181811067ffffffffffffffff8211171561101d5761101c610fc6565b5b80604052505050565b6000611030610ed4565b905061103c8282610ff5565b919050565b600067ffffffffffffffff82111561105c5761105b610fc6565b5b61106582610dd2565b9050602081019050919050565b82818337600083830152505050565b600061109461108f84611041565b611026565b9050828152602081018484840111156110b0576110af610fc1565b5b6110bb848285611072565b509392505050565b600082601f8301126110d8576110d7610fbc565b5b81356110e8848260208601611081565b91505092915050565b60008060006060848603121561110a57611109610ede565b5b600084013567ffffffffffffffff81111561112857611127610ee3565b5b611134868287016110c3565b935050602084013567ffffffffffffffff81111561115557611154610ee3565b5b611161868287016110c3565b925050604084013567ffffffffffffffff81111561118257611181610ee3565b5b61118e868287016110c3565b9150509250925092565b600081519050919050565b600082825260208201905092915050565b6000819050602082019050919050565b6111cd81610ee8565b82525050565b6111dc81610f3e565b82525050565b600060c0830160008301516111fa60008601826111c4565b50602083015184820360208601526112128282610de3565b9150506040830151848203604086015261122c8282610de3565b915050606083015184820360608601526112468282610de3565b915050608083015161125b60808601826111c4565b5060a083015161126e60a08601826111d3565b508091505092915050565b600061128583836111e2565b905092915050565b6000602082019050919050565b60006112a582611198565b6112af81856111a3565b9350836020820285016112c1856111b4565b8060005b858110156112fd57848403895281516112de8582611279565b94506112e98361128d565b925060208a019950506001810190506112c5565b50829750879550505050505092915050565b60006020820190508181036000830152611329818461129a565b905092915050565b60006020828403121561134757611346610ede565b5b600061135584828501610f09565b91505092915050565b61136781610ee8565b82525050565b600082825260208201905092915050565b600061138982610d8c565b611393818561136d565b93506113a3818560208601610da8565b6113ac81610dd2565b840191505092915050565b6113c081610f3e565b82525050565b600060c0820190506113db600083018961135e565b81810360208301526113ed818861137e565b90508181036040830152611401818761137e565b90508181036060830152611415818661137e565b9050611424608083018561135e565b61143160a08301846113b7565b979650505050505050565b7f4e487b7100000000000000000000000000000000000000000000000000000000600052603260045260246000fd5b7f496e76616c6964207469636b6574204944000000000000000000000000000000600082015250565b60006114a160118361136d565b91506114ac8261146b565b602082019050919050565b600060208201905081810360008301526114d081611494565b9050919050565b7f596f752063616e206f6e6c79207472616e7366657220796f7572206f776e207460008201527f69636b6574730000000000000000000000000000000000000000000000000000602082015250565b600061153360268361136d565b915061153e826114d7565b604082019050919050565b6000602082019050818103600083015261156281611526565b9050919050565b7f506c6561736520706179206d6f7265207468616e203000000000000000000000600082015250565b600061159f60168361136d565b91506115aa82611569565b602082019050919050565b600060208201905081810360008301526115ce81611592565b9050919050565b7f496e76616c696420646570617274757265000000000000000000000000000000600082015250565b600061160b60118361136d565b9150611616826115d5565b602082019050919050565b6000602082019050818103600083015261163a816115fe565b9050919050565b7f496e76616c69642064657374696e6174696f6e00000000000000000000000000600082015250565b600061167760138361136d565b915061168282611641565b602082019050919050565b600060208201905081810360008301526116a68161166a565b9050919050565b7f44657061727475726520616e642064657374696e6174696f6e2063616e6e6f7460008201527f206265207468652073616d650000000000000000000000000000000000000000602082015250565b6000611709602c8361136d565b9150611714826116ad565b604082019050919050565b60006020820190508181036000830152611738816116fc565b9050919050565b7f4e487b7100000000000000000000000000000000000000000000000000000000600052602260045260246000fd5b6000600282049050600182168061178657607f821691505b6020821081036117995761179861173f565b5b50919050565b60008190508160005260206000209050919050565b60006020601f8301049050919050565b600082821b905092915050565b6000600883026118017fffffffffffffffffffffffffffffffffffffffffffffffffffffffffffffffff826117c4565b61180b86836117c4565b95508019841693508086168417925050509392505050565b6000819050919050565b600061184861184361183e84610ee8565b611823565b610ee8565b9050919050565b6000819050919050565b6118628361182d565b61187661186e8261184f565b8484546117d1565b825550505050565b600090565b61188b61187e565b611896818484611859565b505050565b5b818110156118ba576118af600082611883565b60018101905061189c565b5050565b601f8211156118ff576118d08161179f565b6118d9846117b4565b810160208510156118e8578190505b6118fc6118f4856117b4565b83018261189b565b50505b505050565b600082821c905092915050565b600061192260001984600802611904565b1980831691505092915050565b600061193b8383611911565b9150826002028217905092915050565b61195482610d8c565b67ffffffffffffffff81111561196d5761196c610fc6565b5b611977825461176e565b6119828282856118be565b600060209050601f8311600181146119b557600084156119a3578287015190505b6119ad858261192f565b865550611a15565b601f1984166119c38661179f565b60005b828110156119eb578489015182556001820191506020850194506020810190506119c6565b86831015611a085784890151611a04601f891682611911565b8355505b6001600288020188555050505b50505050505056fea2646970667358221220247b7078951d9d1e2aa03f1feb3de2df6d948dc464d6d57e58058207e921923e64736f6c63430008180033",
  "linkReferences": {},
  "deployedLinkReferences": {}
}