{
  "_format": "hh-sol-artifact-1",
  "contractName": "ticket",
  "sourceName": "contracts/ticket.sol",
  "abi": [
    {
      "inputs": [],
      "stateMutability": "nonpayable",
      "type": "constructor"
    },
    {
      "inputs": [
        {
          "internalType": "string",
          "name": "_passengerName",
          "type": "string"
        },
        {
          "internalType": "string",
          "name": "_departure",
          "type": "string"
        },
        {
          "internalType": "string",
          "name": "_destination",
          "type": "string"
        }
      ],
      "name": "buyTicket",
      "outputs": [],
      "stateMutability": "payable",
      "type": "function"
    },
    {
      "inputs": [],
      "name": "getMemos",
      "outputs": [
        {
          "components": [
            {
              "internalType": "uint256",
              "name": "ticketId",
              "type": "uint256"
            },
            {
              "internalType": "string",
              "name": "passengerName",
              "type": "string"
            },
            {
              "internalType": "string",
              "name": "departure",
              "type": "string"
            },
            {
              "internalType": "string",
              "name": "destination",
              "type": "string"
            },
            {
              "internalType": "uint256",
              "name": "timestamp",
              "type": "uint256"
            },
            {
              "internalType": "address",
              "name": "from",
              "type": "address"
            }
          ],
          "internalType": "struct ticket.Memo[]",
          "name": "",
          "type": "tuple[]"
        }
      ],
      "stateMutability": "view",
      "type": "function"
    },
    {
      "inputs": [],
      "name": "getValidDepartures",
      "outputs": [
        {
          "internalType": "string[]",
          "name": "",
          "type": "string[]"
        }
      ],
      "stateMutability": "pure",
      "type": "function"
    },
    {
      "inputs": [],
      "name": "getValidDestinations",
      "outputs": [
        {
          "internalType": "string[]",
          "name": "",
          "type": "string[]"
        }
      ],
      "stateMutability": "pure",
      "type": "function"
    },
    {
      "inputs": [
        {
          "internalType": "uint256",
          "name": "",
          "type": "uint256"
        }
      ],
      "name": "memos",
      "outputs": [
        {
          "internalType": "uint256",
          "name": "ticketId",
          "type": "uint256"
        },
        {
          "internalType": "string",
          "name": "passengerName",
          "type": "string"
        },
        {
          "internalType": "string",
          "name": "departure",
          "type": "string"
        },
        {
          "internalType": "string",
          "name": "destination",
          "type": "string"
        },
        {
          "internalType": "uint256",
          "name": "timestamp",
          "type": "uint256"
        },
        {
          "internalType": "address",
          "name": "from",
          "type": "address"
        }
      ],
      "stateMutability": "view",
      "type": "function"
    }
  ],
  "bytecode": "0x608060405234801561001057600080fd5b5033600160006101000a81548173ffffffffffffffffffffffffffffffffffffffff021916908373ffffffffffffffffffffffffffffffffffffffff160217905550611753806100616000396000f3fe60806040526004361061004a5760003560e01c806366b5d1b71461004f578063726021be1461007a578063865c5172146100965780638b962315146100c1578063e8dfdf04146100ec575b600080fd5b34801561005b57600080fd5b5061006461012e565b6040516100719190610d1c565b60405180910390f35b610094600480360381019061008f9190610e87565b610289565b005b3480156100a257600080fd5b506100ab610531565b6040516100b891906110e1565b60405180910390f35b3480156100cd57600080fd5b506100d66107b0565b6040516100e39190610d1c565b60405180910390f35b3480156100f857600080fd5b50610113600480360381019061010e919061112f565b61090b565b604051610125969594939291906111c4565b60405180910390f35b60606000600367ffffffffffffffff81111561014d5761014c610d5c565b5b60405190808252806020026020018201604052801561018057816020015b606081526020019060019003908161016b5790505b5090506040518060400160405280600881526020017f4e657720596f726b000000000000000000000000000000000000000000000000815250816000815181106101cd576101cc61123a565b5b60200260200101819052506040518060400160405280600681526020017f4c6f6e646f6e0000000000000000000000000000000000000000000000000000815250816001815181106102225761022161123a565b5b60200260200101819052506040518060400160405280600581526020017f5061726973000000000000000000000000000000000000000000000000000000815250816002815181106102775761027661123a565b5b60200260200101819052508091505090565b600034116102cc576040517f08c379a00000000000000000000000000000000000000000000000000000000081526004016102c3906112b5565b60405180910390fd5b6102d582610b0f565b610314576040517f08c379a000000000000000000000000000000000000000000000000000000000815260040161030b90611321565b60405180910390fd5b61031d81610b2c565b61035c576040517f08c379a00000000000000000000000000000000000000000000000000000000081526004016103539061138d565b60405180910390fd5b80805190602001208280519060200120036103ac576040517f08c379a00000000000000000000000000000000000000000000000000000000081526004016103a39061141f565b60405180910390fd5b600160009054906101000a900473ffffffffffffffffffffffffffffffffffffffff1673ffffffffffffffffffffffffffffffffffffffff166108fc349081150290604051600060405180830381858888f19350505050158015610414573d6000803e3d6000fd5b5060008080549050905060006040518060c001604052808381526020018681526020018581526020018481526020014281526020013373ffffffffffffffffffffffffffffffffffffffff1681525090806001815401808255809150506001900390600052602060002090600602016000909190919091506000820151816000015560208201518160010190816104ab919061164b565b5060408201518160020190816104c1919061164b565b5060608201518160030190816104d7919061164b565b506080820151816004015560a08201518160050160006101000a81548173ffffffffffffffffffffffffffffffffffffffff021916908373ffffffffffffffffffffffffffffffffffffffff160217905550505050505050565b60606000805480602002602001604051908101604052809291908181526020016000905b828210156107a757838290600052602060002090600602016040518060c0016040529081600082015481526020016001820180546105929061146e565b80601f01602080910402602001604051908101604052809291908181526020018280546105be9061146e565b801561060b5780601f106105e05761010080835404028352916020019161060b565b820191906000526020600020905b8154815290600101906020018083116105ee57829003601f168201915b505050505081526020016002820180546106249061146e565b80601f01602080910402602001604051908101604052809291908181526020018280546106509061146e565b801561069d5780601f106106725761010080835404028352916020019161069d565b820191906000526020600020905b81548152906001019060200180831161068057829003601f168201915b505050505081526020016003820180546106b69061146e565b80601f01602080910402602001604051908101604052809291908181526020018280546106e29061146e565b801561072f5780601f106107045761010080835404028352916020019161072f565b820191906000526020600020905b81548152906001019060200180831161071257829003601f168201915b50505050508152602001600482015481526020016005820160009054906101000a900473ffffffffffffffffffffffffffffffffffffffff1673ffffffffffffffffffffffffffffffffffffffff1673ffffffffffffffffffffffffffffffffffffffff168152505081526020019060010190610555565b50505050905090565b60606000600367ffffffffffffffff8111156107cf576107ce610d5c565b5b60405190808252806020026020018201604052801561080257816020015b60608152602001906001900390816107ed5790505b5090506040518060400160405280600881526020017f4e657720596f726b0000000000000000000000000000000000000000000000008152508160008151811061084f5761084e61123a565b5b60200260200101819052506040518060400160405280600681526020017f4c6f6e646f6e0000000000000000000000000000000000000000000000000000815250816001815181106108a4576108a361123a565b5b60200260200101819052506040518060400160405280600581526020017f5061726973000000000000000000000000000000000000000000000000000000815250816002815181106108f9576108f861123a565b5b60200260200101819052508091505090565b6000818154811061091b57600080fd5b90600052602060002090600602016000915090508060000154908060010180546109449061146e565b80601f01602080910402602001604051908101604052809291908181526020018280546109709061146e565b80156109bd5780601f10610992576101008083540402835291602001916109bd565b820191906000526020600020905b8154815290600101906020018083116109a057829003601f168201915b5050505050908060020180546109d29061146e565b80601f01602080910402602001604051908101604052809291908181526020018280546109fe9061146e565b8015610a4b5780601f10610a2057610100808354040283529160200191610a4b565b820191906000526020600020905b815481529060010190602001808311610a2e57829003601f168201915b505050505090806003018054610a609061146e565b80601f0160208091040260200160405190810160405280929190818152602001828054610a8c9061146e565b8015610ad95780601f10610aae57610100808354040283529160200191610ad9565b820191906000526020600020905b815481529060010190602001808311610abc57829003601f168201915b5050505050908060040154908060050160009054906101000a900473ffffffffffffffffffffffffffffffffffffffff16905086565b600080610b2383610b1e61012e565b610b49565b12159050919050565b600080610b4083610b3b6107b0565b610b49565b12159050919050565b600080600090505b8251811015610b9f578380519060200120838281518110610b7557610b7461123a565b5b60200260200101518051906020012003610b925780915050610bc4565b8080600101915050610b51565b507fffffffffffffffffffffffffffffffffffffffffffffffffffffffffffffffff90505b92915050565b600081519050919050565b600082825260208201905092915050565b6000819050602082019050919050565b600081519050919050565b600082825260208201905092915050565b60005b83811015610c30578082015181840152602081019050610c15565b60008484015250505050565b6000601f19601f8301169050919050565b6000610c5882610bf6565b610c628185610c01565b9350610c72818560208601610c12565b610c7b81610c3c565b840191505092915050565b6000610c928383610c4d565b905092915050565b6000602082019050919050565b6000610cb282610bca565b610cbc8185610bd5565b935083602082028501610cce85610be6565b8060005b85811015610d0a5784840389528151610ceb8582610c86565b9450610cf683610c9a565b925060208a01995050600181019050610cd2565b50829750879550505050505092915050565b60006020820190508181036000830152610d368184610ca7565b905092915050565b6000604051905090565b600080fd5b600080fd5b600080fd5b600080fd5b7f4e487b7100000000000000000000000000000000000000000000000000000000600052604160045260246000fd5b610d9482610c3c565b810181811067ffffffffffffffff82111715610db357610db2610d5c565b5b80604052505050565b6000610dc6610d3e565b9050610dd28282610d8b565b919050565b600067ffffffffffffffff821115610df257610df1610d5c565b5b610dfb82610c3c565b9050602081019050919050565b82818337600083830152505050565b6000610e2a610e2584610dd7565b610dbc565b905082815260208101848484011115610e4657610e45610d57565b5b610e51848285610e08565b509392505050565b600082601f830112610e6e57610e6d610d52565b5b8135610e7e848260208601610e17565b91505092915050565b600080600060608486031215610ea057610e9f610d48565b5b600084013567ffffffffffffffff811115610ebe57610ebd610d4d565b5b610eca86828701610e59565b935050602084013567ffffffffffffffff811115610eeb57610eea610d4d565b5b610ef786828701610e59565b925050604084013567ffffffffffffffff811115610f1857610f17610d4d565b5b610f2486828701610e59565b9150509250925092565b600081519050919050565b600082825260208201905092915050565b6000819050602082019050919050565b6000819050919050565b610f6d81610f5a565b82525050565b600073ffffffffffffffffffffffffffffffffffffffff82169050919050565b6000610f9e82610f73565b9050919050565b610fae81610f93565b82525050565b600060c083016000830151610fcc6000860182610f64565b5060208301518482036020860152610fe48282610c4d565b91505060408301518482036040860152610ffe8282610c4d565b915050606083015184820360608601526110188282610c4d565b915050608083015161102d6080860182610f64565b5060a083015161104060a0860182610fa5565b508091505092915050565b60006110578383610fb4565b905092915050565b6000602082019050919050565b600061107782610f2e565b6110818185610f39565b93508360208202850161109385610f4a565b8060005b858110156110cf57848403895281516110b0858261104b565b94506110bb8361105f565b925060208a01995050600181019050611097565b50829750879550505050505092915050565b600060208201905081810360008301526110fb818461106c565b905092915050565b61110c81610f5a565b811461111757600080fd5b50565b60008135905061112981611103565b92915050565b60006020828403121561114557611144610d48565b5b60006111538482850161111a565b91505092915050565b61116581610f5a565b82525050565b600082825260208201905092915050565b600061118782610bf6565b611191818561116b565b93506111a1818560208601610c12565b6111aa81610c3c565b840191505092915050565b6111be81610f93565b82525050565b600060c0820190506111d9600083018961115c565b81810360208301526111eb818861117c565b905081810360408301526111ff818761117c565b90508181036060830152611213818661117c565b9050611222608083018561115c565b61122f60a08301846111b5565b979650505050505050565b7f4e487b7100000000000000000000000000000000000000000000000000000000600052603260045260246000fd5b7f506c6561736520706179206d6f7265207468616e203000000000000000000000600082015250565b600061129f60168361116b565b91506112aa82611269565b602082019050919050565b600060208201905081810360008301526112ce81611292565b9050919050565b7f496e76616c696420646570617274757265000000000000000000000000000000600082015250565b600061130b60118361116b565b9150611316826112d5565b602082019050919050565b6000602082019050818103600083015261133a816112fe565b9050919050565b7f496e76616c69642064657374696e6174696f6e00000000000000000000000000600082015250565b600061137760138361116b565b915061138282611341565b602082019050919050565b600060208201905081810360008301526113a68161136a565b9050919050565b7f44657061727475726520616e642064657374696e6174696f6e2063616e6e6f7460008201527f206265207468652073616d650000000000000000000000000000000000000000602082015250565b6000611409602c8361116b565b9150611414826113ad565b604082019050919050565b60006020820190508181036000830152611438816113fc565b9050919050565b7f4e487b7100000000000000000000000000000000000000000000000000000000600052602260045260246000fd5b6000600282049050600182168061148657607f821691505b6020821081036114995761149861143f565b5b50919050565b60008190508160005260206000209050919050565b60006020601f8301049050919050565b600082821b905092915050565b6000600883026115017fffffffffffffffffffffffffffffffffffffffffffffffffffffffffffffffff826114c4565b61150b86836114c4565b95508019841693508086168417925050509392505050565b6000819050919050565b600061154861154361153e84610f5a565b611523565b610f5a565b9050919050565b6000819050919050565b6115628361152d565b61157661156e8261154f565b8484546114d1565b825550505050565b600090565b61158b61157e565b611596818484611559565b505050565b5b818110156115ba576115af600082611583565b60018101905061159c565b5050565b601f8211156115ff576115d08161149f565b6115d9846114b4565b810160208510156115e8578190505b6115fc6115f4856114b4565b83018261159b565b50505b505050565b600082821c905092915050565b600061162260001984600802611604565b1980831691505092915050565b600061163b8383611611565b9150826002028217905092915050565b61165482610bf6565b67ffffffffffffffff81111561166d5761166c610d5c565b5b611677825461146e565b6116828282856115be565b600060209050601f8311600181146116b557600084156116a3578287015190505b6116ad858261162f565b865550611715565b601f1984166116c38661149f565b60005b828110156116eb578489015182556001820191506020850194506020810190506116c6565b868310156117085784890151611704601f891682611611565b8355505b6001600288020188555050505b50505050505056fea2646970667358221220604e3381a917185564a9d789c9e40932bc42e91a55fbcabc09f8530469c8470c64736f6c63430008180033",
  "linkReferences": {},
  "deployedLinkReferences": {}
}