{
  "_format": "hh-sol-artifact-1",
  "contractName": "Flight",
  "sourceName": "contracts/Flight.sol",
  "abi": [
    {
      "inputs": [],
      "stateMutability": "nonpayable",
      "type": "constructor"
    },
    {
      "inputs": [
        {
          "internalType": "string",
          "name": "_departure",
          "type": "string"
        },
        {
          "internalType": "string",
          "name": "_destination",
          "type": "string"
        },
        {
          "internalType": "uint256",
          "name": "_departureTime",
          "type": "uint256"
        },
        {
          "internalType": "uint256",
          "name": "_duration",
          "type": "uint256"
        },
        {
          "internalType": "uint256",
          "name": "_capacity",
          "type": "uint256"
        }
      ],
      "name": "addFlight",
      "outputs": [],
      "stateMutability": "nonpayable",
      "type": "function"
    },
    {
      "inputs": [],
      "name": "admin",
      "outputs": [
        {
          "internalType": "address",
          "name": "",
          "type": "address"
        }
      ],
      "stateMutability": "view",
      "type": "function"
    },
    {
      "inputs": [
        {
          "internalType": "uint256",
          "name": "",
          "type": "uint256"
        }
      ],
      "name": "flights",
      "outputs": [
        {
          "internalType": "uint256",
          "name": "flightId",
          "type": "uint256"
        },
        {
          "internalType": "string",
          "name": "departure",
          "type": "string"
        },
        {
          "internalType": "string",
          "name": "destination",
          "type": "string"
        },
        {
          "internalType": "uint256",
          "name": "departureTime",
          "type": "uint256"
        },
        {
          "internalType": "uint256",
          "name": "duration",
          "type": "uint256"
        },
        {
          "internalType": "uint256",
          "name": "capacity",
          "type": "uint256"
        },
        {
          "internalType": "uint256",
          "name": "ticketsSold",
          "type": "uint256"
        }
      ],
      "stateMutability": "view",
      "type": "function"
    },
    {
      "inputs": [
        {
          "internalType": "uint256",
          "name": "_flightId",
          "type": "uint256"
        }
      ],
      "name": "getFlight",
      "outputs": [
        {
          "components": [
            {
              "internalType": "uint256",
              "name": "flightId",
              "type": "uint256"
            },
            {
              "internalType": "string",
              "name": "departure",
              "type": "string"
            },
            {
              "internalType": "string",
              "name": "destination",
              "type": "string"
            },
            {
              "internalType": "uint256",
              "name": "departureTime",
              "type": "uint256"
            },
            {
              "internalType": "uint256",
              "name": "duration",
              "type": "uint256"
            },
            {
              "internalType": "uint256",
              "name": "capacity",
              "type": "uint256"
            },
            {
              "internalType": "uint256",
              "name": "ticketsSold",
              "type": "uint256"
            }
          ],
          "internalType": "struct Flight.FlightDetails",
          "name": "",
          "type": "tuple"
        }
      ],
      "stateMutability": "view",
      "type": "function"
    },
    {
      "inputs": [],
      "name": "getFlights",
      "outputs": [
        {
          "components": [
            {
              "internalType": "uint256",
              "name": "flightId",
              "type": "uint256"
            },
            {
              "internalType": "string",
              "name": "departure",
              "type": "string"
            },
            {
              "internalType": "string",
              "name": "destination",
              "type": "string"
            },
            {
              "internalType": "uint256",
              "name": "departureTime",
              "type": "uint256"
            },
            {
              "internalType": "uint256",
              "name": "duration",
              "type": "uint256"
            },
            {
              "internalType": "uint256",
              "name": "capacity",
              "type": "uint256"
            },
            {
              "internalType": "uint256",
              "name": "ticketsSold",
              "type": "uint256"
            }
          ],
          "internalType": "struct Flight.FlightDetails[]",
          "name": "",
          "type": "tuple[]"
        }
      ],
      "stateMutability": "view",
      "type": "function"
    },
    {
      "inputs": [
        {
          "internalType": "string",
          "name": "_departure",
          "type": "string"
        }
      ],
      "name": "isValidDeparture",
      "outputs": [
        {
          "internalType": "bool",
          "name": "",
          "type": "bool"
        }
      ],
      "stateMutability": "view",
      "type": "function"
    },
    {
      "inputs": [
        {
          "internalType": "string",
          "name": "_destination",
          "type": "string"
        }
      ],
      "name": "isValidDestination",
      "outputs": [
        {
          "internalType": "bool",
          "name": "",
          "type": "bool"
        }
      ],
      "stateMutability": "view",
      "type": "function"
    },
    {
      "inputs": [
        {
          "internalType": "uint256",
          "name": "_flightId",
          "type": "uint256"
        },
        {
          "internalType": "string",
          "name": "_passengerName",
          "type": "string"
        }
      ],
      "name": "purchaseTicket",
      "outputs": [],
      "stateMutability": "payable",
      "type": "function"
    },
    {
      "inputs": [
        {
          "internalType": "uint256",
          "name": "_flightId",
          "type": "uint256"
        }
      ],
      "name": "updateTicketsSold",
      "outputs": [],
      "stateMutability": "nonpayable",
      "type": "function"
    }
  ],
  "bytecode": "0x608060405234801561001057600080fd5b5033600160006101000a81548173ffffffffffffffffffffffffffffffffffffffff021916908373ffffffffffffffffffffffffffffffffffffffff160217905550611930806100616000396000f3fe6080604052600436106100865760003560e01c8063918b885e11610059578063918b885e1461017157806394c260ee1461019a578063b90fbf10146101c5578063f73fd76a14610202578063f851a4401461021e57610086565b806315ccf70f1461008b5780633a4396cb146100ce5780635abe5a031461010b5780639030c10d14610148575b600080fd5b34801561009757600080fd5b506100b260048036038101906100ad9190610c45565b610249565b6040516100c59796959493929190610d11565b60405180910390f35b3480156100da57600080fd5b506100f560048036038101906100f09190610c45565b6103ab565b6040516101029190610e8a565b60405180910390f35b34801561011757600080fd5b50610132600480360381019061012d9190610fe1565b610584565b60405161013f9190611045565b60405180910390f35b34801561015457600080fd5b5061016f600480360381019061016a9190610c45565b610602565b005b34801561017d57600080fd5b5061019860048036038101906101939190611060565b6106cc565b005b3480156101a657600080fd5b506101af610827565b6040516101bc9190611278565b60405180910390f35b3480156101d157600080fd5b506101ec60048036038101906101e79190610fe1565b6109dc565b6040516101f99190611045565b60405180910390f35b61021c6004803603810190610217919061129a565b610a5a565b005b34801561022a57600080fd5b50610233610b98565b6040516102409190611337565b60405180910390f35b6000818154811061025957600080fd5b906000526020600020906007020160009150905080600001549080600101805461028290611381565b80601f01602080910402602001604051908101604052809291908181526020018280546102ae90611381565b80156102fb5780601f106102d0576101008083540402835291602001916102fb565b820191906000526020600020905b8154815290600101906020018083116102de57829003601f168201915b50505050509080600201805461031090611381565b80601f016020809104026020016040519081016040528092919081815260200182805461033c90611381565b80156103895780601f1061035e57610100808354040283529160200191610389565b820191906000526020600020905b81548152906001019060200180831161036c57829003601f168201915b5050505050908060030154908060040154908060050154908060060154905087565b6103b3610bbe565b60008054905082106103fa576040517f08c379a00000000000000000000000000000000000000000000000000000000081526004016103f1906113fe565b60405180910390fd5b6000828154811061040e5761040d61141e565b5b90600052602060002090600702016040518060e00160405290816000820154815260200160018201805461044190611381565b80601f016020809104026020016040519081016040528092919081815260200182805461046d90611381565b80156104ba5780601f1061048f576101008083540402835291602001916104ba565b820191906000526020600020905b81548152906001019060200180831161049d57829003601f168201915b505050505081526020016002820180546104d390611381565b80601f01602080910402602001604051908101604052809291908181526020018280546104ff90611381565b801561054c5780601f106105215761010080835404028352916020019161054c565b820191906000526020600020905b81548152906001019060200180831161052f57829003601f168201915b505050505081526020016003820154815260200160048201548152602001600582015481526020016006820154815250509050919050565b600080600090505b6000805490508110156105f7578280519060200120600082815481106105b5576105b461141e565b5b90600052602060002090600702016001016040516105d391906114f0565b6040518091039020036105ea5760019150506105fd565b808060010191505061058c565b50600090505b919050565b600081815481106106165761061561141e565b5b9060005260206000209060070201600501546000828154811061063c5761063b61141e565b5b9060005260206000209060070201600601541061068e576040517f08c379a000000000000000000000000000000000000000000000000000000000815260040161068590611553565b60405180910390fd5b600081815481106106a2576106a161141e565b5b906000526020600020906007020160060160008154809291906106c4906115a2565b919050555050565b600160009054906101000a900473ffffffffffffffffffffffffffffffffffffffff1673ffffffffffffffffffffffffffffffffffffffff163373ffffffffffffffffffffffffffffffffffffffff161461075c576040517f08c379a00000000000000000000000000000000000000000000000000000000081526004016107539061165c565b60405180910390fd5b60006040518060e001604052806000805490508152602001878152602001868152602001858152602001848152602001838152602001600081525090806001815401808255809150506001900390600052602060002090600702016000909190919091506000820151816000015560208201518160010190816107df9190611828565b5060408201518160020190816107f59190611828565b50606082015181600301556080820151816004015560a0820151816005015560c0820151816006015550505050505050565b60606000805480602002602001604051908101604052809291908181526020016000905b828210156109d357838290600052602060002090600702016040518060e00160405290816000820154815260200160018201805461088890611381565b80601f01602080910402602001604051908101604052809291908181526020018280546108b490611381565b80156109015780601f106108d657610100808354040283529160200191610901565b820191906000526020600020905b8154815290600101906020018083116108e457829003601f168201915b5050505050815260200160028201805461091a90611381565b80601f016020809104026020016040519081016040528092919081815260200182805461094690611381565b80156109935780601f1061096857610100808354040283529160200191610993565b820191906000526020600020905b81548152906001019060200180831161097657829003601f168201915b505050505081526020016003820154815260200160048201548152602001600582015481526020016006820154815250508152602001906001019061084b565b50505050905090565b600080600090505b600080549050811015610a4f57828051906020012060008281548110610a0d57610a0c61141e565b5b9060005260206000209060070201600201604051610a2b91906114f0565b604051809103902003610a42576001915050610a55565b80806001019150506109e4565b50600090505b919050565b6000805490508210610aa1576040517f08c379a0000000000000000000000000000000000000000000000000000000008152600401610a98906113fe565b60405180910390fd5b6000808381548110610ab657610ab561141e565b5b906000526020600020906007020190508060050154816006015410610b10576040517f08c379a0000000000000000000000000000000000000000000000000000000008152600401610b0790611553565b60405180910390fd5b806006016000815480929190610b25906115a2565b9190505550600160009054906101000a900473ffffffffffffffffffffffffffffffffffffffff1673ffffffffffffffffffffffffffffffffffffffff166108fc349081150290604051600060405180830381858888f19350505050158015610b92573d6000803e3d6000fd5b50505050565b600160009054906101000a900473ffffffffffffffffffffffffffffffffffffffff1681565b6040518060e00160405280600081526020016060815260200160608152602001600081526020016000815260200160008152602001600081525090565b6000604051905090565b600080fd5b600080fd5b6000819050919050565b610c2281610c0f565b8114610c2d57600080fd5b50565b600081359050610c3f81610c19565b92915050565b600060208284031215610c5b57610c5a610c05565b5b6000610c6984828501610c30565b91505092915050565b610c7b81610c0f565b82525050565b600081519050919050565b600082825260208201905092915050565b60005b83811015610cbb578082015181840152602081019050610ca0565b60008484015250505050565b6000601f19601f8301169050919050565b6000610ce382610c81565b610ced8185610c8c565b9350610cfd818560208601610c9d565b610d0681610cc7565b840191505092915050565b600060e082019050610d26600083018a610c72565b8181036020830152610d388189610cd8565b90508181036040830152610d4c8188610cd8565b9050610d5b6060830187610c72565b610d686080830186610c72565b610d7560a0830185610c72565b610d8260c0830184610c72565b98975050505050505050565b610d9781610c0f565b82525050565b600082825260208201905092915050565b6000610db982610c81565b610dc38185610d9d565b9350610dd3818560208601610c9d565b610ddc81610cc7565b840191505092915050565b600060e083016000830151610dff6000860182610d8e565b5060208301518482036020860152610e178282610dae565b91505060408301518482036040860152610e318282610dae565b9150506060830151610e466060860182610d8e565b506080830151610e596080860182610d8e565b5060a0830151610e6c60a0860182610d8e565b5060c0830151610e7f60c0860182610d8e565b508091505092915050565b60006020820190508181036000830152610ea48184610de7565b905092915050565b600080fd5b600080fd5b7f4e487b7100000000000000000000000000000000000000000000000000000000600052604160045260246000fd5b610eee82610cc7565b810181811067ffffffffffffffff82111715610f0d57610f0c610eb6565b5b80604052505050565b6000610f20610bfb565b9050610f2c8282610ee5565b919050565b600067ffffffffffffffff821115610f4c57610f4b610eb6565b5b610f5582610cc7565b9050602081019050919050565b82818337600083830152505050565b6000610f84610f7f84610f31565b610f16565b905082815260208101848484011115610fa057610f9f610eb1565b5b610fab848285610f62565b509392505050565b600082601f830112610fc857610fc7610eac565b5b8135610fd8848260208601610f71565b91505092915050565b600060208284031215610ff757610ff6610c05565b5b600082013567ffffffffffffffff81111561101557611014610c0a565b5b61102184828501610fb3565b91505092915050565b60008115159050919050565b61103f8161102a565b82525050565b600060208201905061105a6000830184611036565b92915050565b600080600080600060a0868803121561107c5761107b610c05565b5b600086013567ffffffffffffffff81111561109a57611099610c0a565b5b6110a688828901610fb3565b955050602086013567ffffffffffffffff8111156110c7576110c6610c0a565b5b6110d388828901610fb3565b94505060406110e488828901610c30565b93505060606110f588828901610c30565b925050608061110688828901610c30565b9150509295509295909350565b600081519050919050565b600082825260208201905092915050565b6000819050602082019050919050565b600060e0830160008301516111576000860182610d8e565b506020830151848203602086015261116f8282610dae565b915050604083015184820360408601526111898282610dae565b915050606083015161119e6060860182610d8e565b5060808301516111b16080860182610d8e565b5060a08301516111c460a0860182610d8e565b5060c08301516111d760c0860182610d8e565b508091505092915050565b60006111ee838361113f565b905092915050565b6000602082019050919050565b600061120e82611113565b611218818561111e565b93508360208202850161122a8561112f565b8060005b85811015611266578484038952815161124785826111e2565b9450611252836111f6565b925060208a0199505060018101905061122e565b50829750879550505050505092915050565b600060208201905081810360008301526112928184611203565b905092915050565b600080604083850312156112b1576112b0610c05565b5b60006112bf85828601610c30565b925050602083013567ffffffffffffffff8111156112e0576112df610c0a565b5b6112ec85828601610fb3565b9150509250929050565b600073ffffffffffffffffffffffffffffffffffffffff82169050919050565b6000611321826112f6565b9050919050565b61133181611316565b82525050565b600060208201905061134c6000830184611328565b92915050565b7f4e487b7100000000000000000000000000000000000000000000000000000000600052602260045260246000fd5b6000600282049050600182168061139957607f821691505b6020821081036113ac576113ab611352565b5b50919050565b7f466c6967687420646f6573206e6f742065786973740000000000000000000000600082015250565b60006113e8601583610c8c565b91506113f3826113b2565b602082019050919050565b60006020820190508181036000830152611417816113db565b9050919050565b7f4e487b7100000000000000000000000000000000000000000000000000000000600052603260045260246000fd5b600081905092915050565b60008190508160005260206000209050919050565b6000815461147a81611381565b611484818661144d565b9450600182166000811461149f57600181146114b4576114e7565b60ff19831686528115158202860193506114e7565b6114bd85611458565b60005b838110156114df578154818901526001820191506020810190506114c0565b838801955050505b50505092915050565b60006114fc828461146d565b915081905092915050565b7f4e6f206d6f7265207469636b65747320617661696c61626c6500000000000000600082015250565b600061153d601983610c8c565b915061154882611507565b602082019050919050565b6000602082019050818103600083015261156c81611530565b9050919050565b7f4e487b7100000000000000000000000000000000000000000000000000000000600052601160045260246000fd5b60006115ad82610c0f565b91507fffffffffffffffffffffffffffffffffffffffffffffffffffffffffffffffff82036115df576115de611573565b5b600182019050919050565b7f4f6e6c792061646d696e2063616e20706572666f726d2074686973206163746960008201527f6f6e000000000000000000000000000000000000000000000000000000000000602082015250565b6000611646602283610c8c565b9150611651826115ea565b604082019050919050565b6000602082019050818103600083015261167581611639565b9050919050565b60008190508160005260206000209050919050565b60006020601f8301049050919050565b600082821b905092915050565b6000600883026116de7fffffffffffffffffffffffffffffffffffffffffffffffffffffffffffffffff826116a1565b6116e886836116a1565b95508019841693508086168417925050509392505050565b6000819050919050565b600061172561172061171b84610c0f565b611700565b610c0f565b9050919050565b6000819050919050565b61173f8361170a565b61175361174b8261172c565b8484546116ae565b825550505050565b600090565b61176861175b565b611773818484611736565b505050565b5b818110156117975761178c600082611760565b600181019050611779565b5050565b601f8211156117dc576117ad8161167c565b6117b684611691565b810160208510156117c5578190505b6117d96117d185611691565b830182611778565b50505b505050565b600082821c905092915050565b60006117ff600019846008026117e1565b1980831691505092915050565b600061181883836117ee565b9150826002028217905092915050565b61183182610c81565b67ffffffffffffffff81111561184a57611849610eb6565b5b6118548254611381565b61185f82828561179b565b600060209050601f8311600181146118925760008415611880578287015190505b61188a858261180c565b8655506118f2565b601f1984166118a08661167c565b60005b828110156118c8578489015182556001820191506020850194506020810190506118a3565b868310156118e557848901516118e1601f8916826117ee565b8355505b6001600288020188555050505b50505050505056fea2646970667358221220e1c18dd7fc88107d3eeeb3c11e6d89d6d702e2679433ca0bcfaca9d15e11895f64736f6c63430008180033",
  "linkReferences": {},
  "deployedLinkReferences": {}
}