{
  "_format": "hh-sol-artifact-1",
  "contractName": "Ticket",
  "sourceName": "contracts/Ticket.sol",
  "abi": [
    {
      "inputs": [
        {
          "internalType": "address",
          "name": "_flightContractAddress",
          "type": "address"
        }
      ],
      "stateMutability": "nonpayable",
      "type": "constructor"
    },
    {
      "inputs": [
        {
          "internalType": "string",
          "name": "_passengerName",
          "type": "string"
        },
        {
          "internalType": "uint256",
          "name": "_flightId",
          "type": "uint256"
        }
      ],
      "name": "buyTicket",
      "outputs": [],
      "stateMutability": "payable",
      "type": "function"
    },
    {
      "inputs": [],
      "name": "flightContract",
      "outputs": [
        {
          "internalType": "contract Flight",
          "name": "",
          "type": "address"
        }
      ],
      "stateMutability": "view",
      "type": "function"
    },
    {
      "inputs": [],
      "name": "getMemos",
      "outputs": [
        {
          "components": [
            {
              "internalType": "uint256",
              "name": "ticketId",
              "type": "uint256"
            },
            {
              "internalType": "string",
              "name": "passengerName",
              "type": "string"
            },
            {
              "internalType": "string",
              "name": "departure",
              "type": "string"
            },
            {
              "internalType": "string",
              "name": "destination",
              "type": "string"
            },
            {
              "internalType": "uint256",
              "name": "timestamp",
              "type": "uint256"
            },
            {
              "internalType": "address",
              "name": "from",
              "type": "address"
            },
            {
              "internalType": "uint256",
              "name": "flightId",
              "type": "uint256"
            }
          ],
          "internalType": "struct Ticket.Memo[]",
          "name": "",
          "type": "tuple[]"
        }
      ],
      "stateMutability": "view",
      "type": "function"
    },
    {
      "inputs": [
        {
          "internalType": "uint256",
          "name": "",
          "type": "uint256"
        }
      ],
      "name": "memos",
      "outputs": [
        {
          "internalType": "uint256",
          "name": "ticketId",
          "type": "uint256"
        },
        {
          "internalType": "string",
          "name": "passengerName",
          "type": "string"
        },
        {
          "internalType": "string",
          "name": "departure",
          "type": "string"
        },
        {
          "internalType": "string",
          "name": "destination",
          "type": "string"
        },
        {
          "internalType": "uint256",
          "name": "timestamp",
          "type": "uint256"
        },
        {
          "internalType": "address",
          "name": "from",
          "type": "address"
        },
        {
          "internalType": "uint256",
          "name": "flightId",
          "type": "uint256"
        }
      ],
      "stateMutability": "view",
      "type": "function"
    },
    {
      "inputs": [
        {
          "internalType": "uint256",
          "name": "_ticketId",
          "type": "uint256"
        },
        {
          "internalType": "address",
          "name": "_to",
          "type": "address"
        }
      ],
      "name": "transferTicket",
      "outputs": [],
      "stateMutability": "nonpayable",
      "type": "function"
    }
  ],
  "bytecode": "0x60806040523480156200001157600080fd5b5060405162001bd138038062001bd183398181016040528101906200003791906200012a565b33600160006101000a81548173ffffffffffffffffffffffffffffffffffffffff021916908373ffffffffffffffffffffffffffffffffffffffff16021790555080600260006101000a81548173ffffffffffffffffffffffffffffffffffffffff021916908373ffffffffffffffffffffffffffffffffffffffff160217905550506200015c565b600080fd5b600073ffffffffffffffffffffffffffffffffffffffff82169050919050565b6000620000f282620000c5565b9050919050565b6200010481620000e5565b81146200011057600080fd5b50565b6000815190506200012481620000f9565b92915050565b600060208284031215620001435762000142620000c0565b5b6000620001538482850162000113565b91505092915050565b611a65806200016c6000396000f3fe60806040526004361061004a5760003560e01c8063679ebf1a1461004f57806372862a4614610078578063865c5172146100a3578063a28f161c146100ce578063e8dfdf04146100ea575b600080fd5b34801561005b57600080fd5b5061007660048036038101906100719190610ce4565b61012d565b005b34801561008457600080fd5b5061008d61028f565b60405161009a9190610d83565b60405180910390f35b3480156100af57600080fd5b506100b86102b5565b6040516100c59190610fb8565b60405180910390f35b6100e860048036038101906100e3919061110f565b61053e565b005b3480156100f657600080fd5b50610111600480360381019061010c919061116b565b6108e8565b6040516101249796959493929190611200565b60405180910390f35b6000805490508210610174576040517f08c379a000000000000000000000000000000000000000000000000000000000815260040161016b906112d0565b60405180910390fd5b3373ffffffffffffffffffffffffffffffffffffffff166000838154811061019f5761019e6112f0565b5b906000526020600020906007020160050160009054906101000a900473ffffffffffffffffffffffffffffffffffffffff1673ffffffffffffffffffffffffffffffffffffffff1614610227576040517f08c379a000000000000000000000000000000000000000000000000000000000815260040161021e90611391565b60405180910390fd5b806000838154811061023c5761023b6112f0565b5b906000526020600020906007020160050160006101000a81548173ffffffffffffffffffffffffffffffffffffffff021916908373ffffffffffffffffffffffffffffffffffffffff1602179055505050565b600260009054906101000a900473ffffffffffffffffffffffffffffffffffffffff1681565b60606000805480602002602001604051908101604052809291908181526020016000905b8282101561053557838290600052602060002090600702016040518060e001604052908160008201548152602001600182018054610316906113e0565b80601f0160208091040260200160405190810160405280929190818152602001828054610342906113e0565b801561038f5780601f106103645761010080835404028352916020019161038f565b820191906000526020600020905b81548152906001019060200180831161037257829003601f168201915b505050505081526020016002820180546103a8906113e0565b80601f01602080910402602001604051908101604052809291908181526020018280546103d4906113e0565b80156104215780601f106103f657610100808354040283529160200191610421565b820191906000526020600020905b81548152906001019060200180831161040457829003601f168201915b5050505050815260200160038201805461043a906113e0565b80601f0160208091040260200160405190810160405280929190818152602001828054610466906113e0565b80156104b35780601f10610488576101008083540402835291602001916104b3565b820191906000526020600020905b81548152906001019060200180831161049657829003601f168201915b50505050508152602001600482015481526020016005820160009054906101000a900473ffffffffffffffffffffffffffffffffffffffff1673ffffffffffffffffffffffffffffffffffffffff1673ffffffffffffffffffffffffffffffffffffffff168152602001600682015481525050815260200190600101906102d9565b50505050905090565b60003411610581576040517f08c379a00000000000000000000000000000000000000000000000000000000081526004016105789061145d565b60405180910390fd5b6000600260009054906101000a900473ffffffffffffffffffffffffffffffffffffffff1673ffffffffffffffffffffffffffffffffffffffff16633a4396cb836040518263ffffffff1660e01b81526004016105de919061147d565b600060405180830381865afa1580156105fb573d6000803e3d6000fd5b505050506040513d6000823e3d601f19601f820116820180604052508101906106249190611613565b90506106338160200151610af2565b610672576040517f08c379a0000000000000000000000000000000000000000000000000000000008152600401610669906116a8565b60405180910390fd5b61067f8160400151610b97565b6106be576040517f08c379a00000000000000000000000000000000000000000000000000000000081526004016106b590611714565b60405180910390fd5b600160009054906101000a900473ffffffffffffffffffffffffffffffffffffffff1673ffffffffffffffffffffffffffffffffffffffff166108fc349081150290604051600060405180830381858888f19350505050158015610726573d6000803e3d6000fd5b5060008080549050905060006040518060e0016040528083815260200186815260200184602001518152602001846040015181526020014281526020013373ffffffffffffffffffffffffffffffffffffffff1681526020018581525090806001815401808255809150506001900390600052602060002090600702016000909190919091506000820151816000015560208201518160010190816107cb91906118d6565b5060408201518160020190816107e191906118d6565b5060608201518160030190816107f791906118d6565b506080820151816004015560a08201518160050160006101000a81548173ffffffffffffffffffffffffffffffffffffffff021916908373ffffffffffffffffffffffffffffffffffffffff16021790555060c082015181600601555050600260009054906101000a900473ffffffffffffffffffffffffffffffffffffffff1673ffffffffffffffffffffffffffffffffffffffff16639030c10d846040518263ffffffff1660e01b81526004016108b0919061147d565b600060405180830381600087803b1580156108ca57600080fd5b505af11580156108de573d6000803e3d6000fd5b5050505050505050565b600081815481106108f857600080fd5b9060005260206000209060070201600091509050806000015490806001018054610921906113e0565b80601f016020809104026020016040519081016040528092919081815260200182805461094d906113e0565b801561099a5780601f1061096f5761010080835404028352916020019161099a565b820191906000526020600020905b81548152906001019060200180831161097d57829003601f168201915b5050505050908060020180546109af906113e0565b80601f01602080910402602001604051908101604052809291908181526020018280546109db906113e0565b8015610a285780601f106109fd57610100808354040283529160200191610a28565b820191906000526020600020905b815481529060010190602001808311610a0b57829003601f168201915b505050505090806003018054610a3d906113e0565b80601f0160208091040260200160405190810160405280929190818152602001828054610a69906113e0565b8015610ab65780601f10610a8b57610100808354040283529160200191610ab6565b820191906000526020600020905b815481529060010190602001808311610a9957829003601f168201915b5050505050908060040154908060050160009054906101000a900473ffffffffffffffffffffffffffffffffffffffff16908060060154905087565b6000600260009054906101000a900473ffffffffffffffffffffffffffffffffffffffff1673ffffffffffffffffffffffffffffffffffffffff16635abe5a03836040518263ffffffff1660e01b8152600401610b4f91906119a8565b602060405180830381865afa158015610b6c573d6000803e3d6000fd5b505050506040513d601f19601f82011682018060405250810190610b909190611a02565b9050919050565b6000600260009054906101000a900473ffffffffffffffffffffffffffffffffffffffff1673ffffffffffffffffffffffffffffffffffffffff1663b90fbf10836040518263ffffffff1660e01b8152600401610bf491906119a8565b602060405180830381865afa158015610c11573d6000803e3d6000fd5b505050506040513d601f19601f82011682018060405250810190610c359190611a02565b9050919050565b6000604051905090565b600080fd5b600080fd5b6000819050919050565b610c6381610c50565b8114610c6e57600080fd5b50565b600081359050610c8081610c5a565b92915050565b600073ffffffffffffffffffffffffffffffffffffffff82169050919050565b6000610cb182610c86565b9050919050565b610cc181610ca6565b8114610ccc57600080fd5b50565b600081359050610cde81610cb8565b92915050565b60008060408385031215610cfb57610cfa610c46565b5b6000610d0985828601610c71565b9250506020610d1a85828601610ccf565b9150509250929050565b6000819050919050565b6000610d49610d44610d3f84610c86565b610d24565b610c86565b9050919050565b6000610d5b82610d2e565b9050919050565b6000610d6d82610d50565b9050919050565b610d7d81610d62565b82525050565b6000602082019050610d986000830184610d74565b92915050565b600081519050919050565b600082825260208201905092915050565b6000819050602082019050919050565b610dd381610c50565b82525050565b600081519050919050565b600082825260208201905092915050565b60005b83811015610e13578082015181840152602081019050610df8565b60008484015250505050565b6000601f19601f8301169050919050565b6000610e3b82610dd9565b610e458185610de4565b9350610e55818560208601610df5565b610e5e81610e1f565b840191505092915050565b610e7281610ca6565b82525050565b600060e083016000830151610e906000860182610dca565b5060208301518482036020860152610ea88282610e30565b91505060408301518482036040860152610ec28282610e30565b91505060608301518482036060860152610edc8282610e30565b9150506080830151610ef16080860182610dca565b5060a0830151610f0460a0860182610e69565b5060c0830151610f1760c0860182610dca565b508091505092915050565b6000610f2e8383610e78565b905092915050565b6000602082019050919050565b6000610f4e82610d9e565b610f588185610da9565b935083602082028501610f6a85610dba565b8060005b85811015610fa65784840389528151610f878582610f22565b9450610f9283610f36565b925060208a01995050600181019050610f6e565b50829750879550505050505092915050565b60006020820190508181036000830152610fd28184610f43565b905092915050565b600080fd5b600080fd5b7f4e487b7100000000000000000000000000000000000000000000000000000000600052604160045260246000fd5b61101c82610e1f565b810181811067ffffffffffffffff8211171561103b5761103a610fe4565b5b80604052505050565b600061104e610c3c565b905061105a8282611013565b919050565b600067ffffffffffffffff82111561107a57611079610fe4565b5b61108382610e1f565b9050602081019050919050565b82818337600083830152505050565b60006110b26110ad8461105f565b611044565b9050828152602081018484840111156110ce576110cd610fdf565b5b6110d9848285611090565b509392505050565b600082601f8301126110f6576110f5610fda565b5b813561110684826020860161109f565b91505092915050565b6000806040838503121561112657611125610c46565b5b600083013567ffffffffffffffff81111561114457611143610c4b565b5b611150858286016110e1565b925050602061116185828601610c71565b9150509250929050565b60006020828403121561118157611180610c46565b5b600061118f84828501610c71565b91505092915050565b6111a181610c50565b82525050565b600082825260208201905092915050565b60006111c382610dd9565b6111cd81856111a7565b93506111dd818560208601610df5565b6111e681610e1f565b840191505092915050565b6111fa81610ca6565b82525050565b600060e082019050611215600083018a611198565b818103602083015261122781896111b8565b9050818103604083015261123b81886111b8565b9050818103606083015261124f81876111b8565b905061125e6080830186611198565b61126b60a08301856111f1565b61127860c0830184611198565b98975050505050505050565b7f496e76616c6964207469636b6574204944000000000000000000000000000000600082015250565b60006112ba6011836111a7565b91506112c582611284565b602082019050919050565b600060208201905081810360008301526112e9816112ad565b9050919050565b7f4e487b7100000000000000000000000000000000000000000000000000000000600052603260045260246000fd5b7f596f752063616e206f6e6c79207472616e7366657220796f7572206f776e207460008201527f69636b6574730000000000000000000000000000000000000000000000000000602082015250565b600061137b6026836111a7565b91506113868261131f565b604082019050919050565b600060208201905081810360008301526113aa8161136e565b9050919050565b7f4e487b7100000000000000000000000000000000000000000000000000000000600052602260045260246000fd5b600060028204905060018216806113f857607f821691505b60208210810361140b5761140a6113b1565b5b50919050565b7f506c6561736520706179206d6f7265207468616e203000000000000000000000600082015250565b60006114476016836111a7565b915061145282611411565b602082019050919050565b600060208201905081810360008301526114768161143a565b9050919050565b60006020820190506114926000830184611198565b92915050565b600080fd5b600080fd5b6000815190506114b181610c5a565b92915050565b60006114ca6114c58461105f565b611044565b9050828152602081018484840111156114e6576114e5610fdf565b5b6114f1848285610df5565b509392505050565b600082601f83011261150e5761150d610fda565b5b815161151e8482602086016114b7565b91505092915050565b600060e0828403121561153d5761153c611498565b5b61154760e0611044565b90506000611557848285016114a2565b600083015250602082015167ffffffffffffffff81111561157b5761157a61149d565b5b611587848285016114f9565b602083015250604082015167ffffffffffffffff8111156115ab576115aa61149d565b5b6115b7848285016114f9565b60408301525060606115cb848285016114a2565b60608301525060806115df848285016114a2565b60808301525060a06115f3848285016114a2565b60a08301525060c0611607848285016114a2565b60c08301525092915050565b60006020828403121561162957611628610c46565b5b600082015167ffffffffffffffff81111561164757611646610c4b565b5b61165384828501611527565b91505092915050565b7f496e76616c696420646570617274757265000000000000000000000000000000600082015250565b60006116926011836111a7565b915061169d8261165c565b602082019050919050565b600060208201905081810360008301526116c181611685565b9050919050565b7f496e76616c69642064657374696e6174696f6e00000000000000000000000000600082015250565b60006116fe6013836111a7565b9150611709826116c8565b602082019050919050565b6000602082019050818103600083015261172d816116f1565b9050919050565b60008190508160005260206000209050919050565b60006020601f8301049050919050565b600082821b905092915050565b6000600883026117967fffffffffffffffffffffffffffffffffffffffffffffffffffffffffffffffff82611759565b6117a08683611759565b95508019841693508086168417925050509392505050565b60006117d36117ce6117c984610c50565b610d24565b610c50565b9050919050565b6000819050919050565b6117ed836117b8565b6118016117f9826117da565b848454611766565b825550505050565b600090565b611816611809565b6118218184846117e4565b505050565b5b818110156118455761183a60008261180e565b600181019050611827565b5050565b601f82111561188a5761185b81611734565b61186484611749565b81016020851015611873578190505b61188761187f85611749565b830182611826565b50505b505050565b600082821c905092915050565b60006118ad6000198460080261188f565b1980831691505092915050565b60006118c6838361189c565b9150826002028217905092915050565b6118df82610dd9565b67ffffffffffffffff8111156118f8576118f7610fe4565b5b61190282546113e0565b61190d828285611849565b600060209050601f831160018114611940576000841561192e578287015190505b61193885826118ba565b8655506119a0565b601f19841661194e86611734565b60005b8281101561197657848901518255600182019150602085019450602081019050611951565b86831015611993578489015161198f601f89168261189c565b8355505b6001600288020188555050505b505050505050565b600060208201905081810360008301526119c281846111b8565b905092915050565b60008115159050919050565b6119df816119ca565b81146119ea57600080fd5b50565b6000815190506119fc816119d6565b92915050565b600060208284031215611a1857611a17610c46565b5b6000611a26848285016119ed565b9150509291505056fea2646970667358221220ebfcc27a57803a6e1cbc17a4346580ad7c5dc0a0b1067575bb5fb06133582c8364736f6c63430008180033",
  "linkReferences": {},
  "deployedLinkReferences": {}
}